:1004A900C100C181020C0000010F00010E000113FF
:0B04B90000010A00010B00021000000F
:0A051F00EF1F70011E144E70F7224A
:0F04D500750E32750F32C291D292C293D2942219
:0F04E400750E32750F32D291C292D293C294220A
:0A052900750F23C290C293D29422F2
:0A053300750E23C295C291D29222E8
:0A053D00750F23D293C294C29022DE
:0A054700750E23D291C292C29522D4
:0F04F300750F23D291C292750E23C293D2942219
:0F050200750F23C291D292750E23D293C2942209
:0A055100E4F50EF50FC290C29522EA
:1004C500438901758CFF758A9CD28CD2A9D2AF2243
:10000E0053890F438920758DFD758BFDD28E7598A2
:02001E0050226E
:0E051100E4F5C9F5C8F5CDF5CCC2ADD2AF22E8
:09055B00D2AFD2ACD2BBC2B9226E
:10039D00E51224D0B4090050449003B475F003A4C1
:1003AD00C58325F0C583730203E70203CF0203D291
:1003BD000203D50203D80203DB0203DE0203E102CE
:1003CD0003E40204D50204E40205020204F302056B
:0E03DD002902053302053D0205471205512293
:1003EB00D2B67F147E0012051FC2B630B7FDD2CA3B
:1003FB0020B7FDC2CAAFCDEFFEADCC7C00E42DF52E
:10040B000DEC3EF50CE4F5CDF5CCAC0CAD0D1201BD
:10041B00317B777AE0793C783E12002612016A8EA6
:04042B00088F09220B
:1001F90020962120971E20B21B20B318EF14600708
:100209001460092402800A1204F38008120502808E
:10021900031204D520960E30970B20B20820B3059F
:10022900120529E4FF20960E20970B30B20820B35F
:1002390005120533E4FF30960E20970B20B20820F3
:10024900B3051204F37F0120960E20970B20B20804
:1002590030B3051205027F0230960E30970B20B29B
:100269000820B3051204F37F0120960E20970B3066
:10027900B20830B3051205027F0230960C30970997
:0902890030B20630B30312055136
:010292002249
:10048900C3E50994C8E508940040030201F9C3E5EE
:10049900099496E508940050030204E412055122D8
:10046200E4F5121204C512000E12051112055BE525
:100472001145106005120489C201E511451070EFA3
:0704820012039DD20180E886
:03000B0002031FCE
:10031F00C0E0C0F0C083C082C0D075D000C000C0A4
:10032F0001C002C003C004C005C006C007758CFF22
:10033F00758A9C0513E513C3950E5004D290800265
:10034F00C290E513C3950F5004D2958002C295E574
:10035F0013C394644003751300200117050AE50ABF
:10036F00B4FF10050B750A00E50BB40A061203EB78
:10037F00750B00D007D006D005D004D003D002D023
:0E038F0001D000D0D0D082D083D0F0D0E032A8
:0300230002042FA5
:10042F00C0E0C0D075D000C00730981BC298859926
:10043F0012E512B43911E511451070047F018002E5
:10044F007F007510008F11309902C299D007D0D05C
:03045F00D0E032B8
:10002600EC4D6011E8497017ED33EC3304600DE4D4
:10003600FCFFFEFD22E933E8330470F80201D61214
:1000460001A158046009E4CC248150062850090215
:1000560001E02840030201DDC0E0EB4A7044B980AC
:1000660006D0E0FB0201CCEF4E701CBD8008EBFF12
:10007600EAFEE9FD80EBE98DF0A4FEE5F002010F52
:10008600E9CDF9EAFEEBFFEF89F0A4FCE5F0CE89B5
:10009600F0A42EFFE435F0CD89F0A42DFEE435F072
:1000A6008067EF4E7005BD80D780C3EF8BF0A4ACA0
:1000B600F0EE8BF0A42CFCE435F0F8EF8AF0A42CDB
:1000C600E5F038FCE433CB8DF0A42CFCE5F03BF8EE
:1000D600EE8AF0A42CFCE5F038F8E433CF89F0A4DE
:1000E6002CFCE5F038CF3400CE89F0A42FFFE5F0E4
:1000F6003EFEE433C98DF0A42EFEE5F039CD8AF03C
:10010600A42FFFE5F03EFEE43DFD33D0E0FB5007B3
:100116000BBB000F0201E0EC2CFCEF33FFEE33FECD
:06012600ED33FD0201B8FB
:10012C0075F020800E75F010800575F0087D007E4E
:10013C00007F003392D530D5031201EBEC33401025
:10014C00EF33FFEE33FEED33FDEC33FCD5F0ED2257
:0E015C00E5F0247EA2D513CC92E7CDCEFF2293
:10016A00EDD2E7CD33EC3392D524814006E4FFFE8D
:10017A00FDFC22FCE4CFCECDCC24E0501174FF80EC
:10018A00EDC3CC13CCCD13CDCE13CECF13CF047089
:07019A00F030D5DE0201EB9D
:1001A100E9D2E7C933E833F892D5EDD2E7CD33ECA4
:0701B10033FC5002B2D5221D
:1001B800EC30E7100FBF000C0EBE00080DBD0004A8
:1001C8000BEB6014A2D5EB13FCED92E7FD2274FF54
:1001D800FCFDFEFF22E480F8A2D574FF13FC7D80AD
:0301E800E480EFC1
:0300000002029366
:0C029300787FE4F6D8FD7581200202DAC5
:0E01EB00C3E49FFFE49EFEE49DFDE49CFC2225
:10029F00020462E493A3F8E493A34003F68001F20F
:1002AF0008DFF48029E493A3F85407240CC8C33360
:1002BF00C4540F4420C8834004F456800146F6DF2F
:1002CF00E4800B01020408102040809004A9E47E12
:1002DF00019360BCA3FF543F30E509541FFEE49324
:1002EF00A360010ECF54C025E060A840B8E493A3EB
:1002FF00FAE493A3F8E493A3C8C582C8CAC583CA16
:10030F00F0A3C8C582C8CAC583CADFE9DEE780BECD
:0104C4000037
:00000001FF
